{"contracts/TipMe.sol":{"TipMe":{"abi":[{"inputs":[],"stateMutability":"nonpayable","type":"constructor"},{"inputs":[],"name":"getInfo","outputs":[{"components":[{"internalType":"string","name":"name","type":"string"},{"internalType":"string","name":"message","type":"string"},{"internalType":"uint256","name":"timestamp","type":"uint256"},{"internalType":"address","name":"from","type":"address"}],"internalType":"struct TipMe.Memo[]","name":"","type":"tuple[]"}],"stateMutability":"view","type":"function"},{"inputs":[{"internalType":"string","name":"name","type":"string"},{"internalType":"string","name":"message","type":"string"}],"name":"sendTip","outputs":[],"stateMutability":"payable","type":"function"}],"evm":{"bytecode":{"linkReferences":{},"object":"608060405234801561001057600080fd5b50336000806101000a81548173ffffffffffffffffffffffffffffffffffffffff021916908373ffffffffffffffffffffffffffffffffffffffff160217905550610b71806100606000396000f3fe6080604052600436106100295760003560e01c806354cafb041461002e5780635a9b0b891461004a575b600080fd5b61004860048036038101906100439190610541565b610075565b005b34801561005657600080fd5b5061005f610204565b60405161006c91906107be565b60405180910390f35b600034116100b8576040517f08c379a00000000000000000000000000000000000000000000000000000000081526004016100af9061083d565b60405180910390fd5b60008054906101000a900473ffffffffffffffffffffffffffffffffffffffff1673ffffffffffffffffffffffffffffffffffffffff166108fc349081150290604051600060405180830381858888f1935050505015801561011e573d6000803e3d6000fd5b50600160405180608001604052808481526020018381526020014281526020013373ffffffffffffffffffffffffffffffffffffffff16815250908060018154018082558091505060019003906000526020600020906004020160009091909190915060008201518160000190816101969190610a69565b5060208201518160010190816101ac9190610a69565b506040820151816002015560608201518160030160006101000a81548173ffffffffffffffffffffffffffffffffffffffff021916908373ffffffffffffffffffffffffffffffffffffffff16021790555050505050565b60606001805480602002602001604051908101604052809291908181526020016000905b828210156103de578382906000526020600020906004020160405180608001604052908160008201805461025b9061088c565b80601f01602080910402602001604051908101604052809291908181526020018280546102879061088c565b80156102d45780601f106102a9576101008083540402835291602001916102d4565b820191906000526020600020905b8154815290600101906020018083116102b757829003601f168201915b505050505081526020016001820180546102ed9061088c565b80601f01602080910402602001604051908101604052809291908181526020018280546103199061088c565b80156103665780601f1061033b57610100808354040283529160200191610366565b820191906000526020600020905b81548152906001019060200180831161034957829003601f168201915b50505050508152602001600282015481526020016003820160009054906101000a900473ffffffffffffffffffffffffffffffffffffffff1673ffffffffffffffffffffffffffffffffffffffff1673ffffffffffffffffffffffffffffffffffffffff168152505081526020019060010190610228565b50505050905090565b6000604051905090565b600080fd5b600080fd5b600080fd5b600080fd5b6000601f19601f8301169050919050565b7f4e487b7100000000000000000000000000000000000000000000000000000000600052604160045260246000fd5b61044e82610405565b810181811067ffffffffffffffff8211171561046d5761046c610416565b5b80604052505050565b60006104806103e7565b905061048c8282610445565b919050565b600067ffffffffffffffff8211156104ac576104ab610416565b5b6104b582610405565b9050602081019050919050565b82818337600083830152505050565b60006104e46104df84610491565b610476565b905082815260208101848484011115610500576104ff610400565b5b61050b8482856104c2565b509392505050565b600082601f830112610528576105276103fb565b5b81356105388482602086016104d1565b91505092915050565b60008060408385031215610558576105576103f1565b5b600083013567ffffffffffffffff811115610576576105756103f6565b5b61058285828601610513565b925050602083013567ffffffffffffffff8111156105a3576105a26103f6565b5b6105af85828601610513565b9150509250929050565b600081519050919050565b600082825260208201905092915050565b6000819050602082019050919050565b600081519050919050565b600082825260208201905092915050565b60005b8381101561061f578082015181840152602081019050610604565b60008484015250505050565b6000610636826105e5565b61064081856105f0565b9350610650818560208601610601565b61065981610405565b840191505092915050565b6000819050919050565b61067781610664565b82525050565b600073ffffffffffffffffffffffffffffffffffffffff82169050919050565b60006106a88261067d565b9050919050565b6106b88161069d565b82525050565b600060808301600083015184820360008601526106db828261062b565b915050602083015184820360208601526106f5828261062b565b915050604083015161070a604086018261066e565b50606083015161071d60608601826106af565b508091505092915050565b600061073483836106be565b905092915050565b6000602082019050919050565b6000610754826105b9565b61075e81856105c4565b935083602082028501610770856105d5565b8060005b858110156107ac578484038952815161078d8582610728565b94506107988361073c565b925060208a01995050600181019050610774565b50829750879550505050505092915050565b600060208201905081810360008301526107d88184610749565b905092915050565b600082825260208201905092915050565b7f5061792067726561746572207468616e20302065746865722e00000000000000600082015250565b60006108276019836107e0565b9150610832826107f1565b602082019050919050565b600060208201905081810360008301526108568161081a565b9050919050565b7f4e487b7100000000000000000000000000000000000000000000000000000000600052602260045260246000fd5b600060028204905060018216806108a457607f821691505b6020821081036108b7576108b661085d565b5b50919050565b60008190508160005260206000209050919050565b60006020601f8301049050919050565b600082821b905092915050565b60006008830261091f7fffffffffffffffffffffffffffffffffffffffffffffffffffffffffffffffff826108e2565b61092986836108e2565b95508019841693508086168417925050509392505050565b6000819050919050565b600061096661096161095c84610664565b610941565b610664565b9050919050565b6000819050919050565b6109808361094b565b61099461098c8261096d565b8484546108ef565b825550505050565b600090565b6109a961099c565b6109b4818484610977565b505050565b5b818110156109d8576109cd6000826109a1565b6001810190506109ba565b5050565b601f821115610a1d576109ee816108bd565b6109f7846108d2565b81016020851015610a06578190505b610a1a610a12856108d2565b8301826109b9565b50505b505050565b600082821c905092915050565b6000610a4060001984600802610a22565b1980831691505092915050565b6000610a598383610a2f565b9150826002028217905092915050565b610a72826105e5565b67ffffffffffffffff811115610a8b57610a8a610416565b5b610a95825461088c565b610aa08282856109dc565b600060209050601f831160018114610ad35760008415610ac1578287015190505b610acb8582610a4d565b865550610b33565b601f198416610ae1866108bd565b60005b82811015610b0957848901518255600182019150602085019450602081019050610ae4565b86831015610b265784890151610b22601f891682610a2f565b8355505b6001600288020188555050505b50505050505056fea264697066735822122003a119a5f8ec56fe5c17dd43c84a9ba6511455eb8c08bf0e7cba892161d38ace64736f6c63430008110033","opcodes":"PUSH1 0x80 PUSH1 0x40 MSTORE CALLVALUE DUP1 ISZERO PUSH2 0x10 JUMPI PUSH1 0x0 DUP1 REVERT JUMPDEST POP CALLER PUSH1 0x0 DUP1 PUSH2 0x100 EXP DUP2 SLOAD DUP2 PUSH20 0xFFFFFFFFFFFFFFFFFFFFFFFFFFFFFFFFFFFFFFFF MUL NOT AND SWAP1 DUP4 PUSH20 0xFFFFFFFFFFFFFFFFFFFFFFFFFFFFFFFFFFFFFFFF AND MUL OR SWAP1 SSTORE POP PUSH2 0xB71 DUP1 PUSH2 0x60 PUSH1 0x0 CODECOPY PUSH1 0x0 RETURN INVALID PUSH1 0x80 PUSH1 0x40 MSTORE PUSH1 0x4 CALLDATASIZE LT PUSH2 0x29 JUMPI PUSH1 0x0 CALLDATALOAD PUSH1 0xE0 SHR DUP1 PUSH4 0x54CAFB04 EQ PUSH2 0x2E JUMPI DUP1 PUSH4 0x5A9B0B89 EQ PUSH2 0x4A JUMPI JUMPDEST PUSH1 0x0 DUP1 REVERT JUMPDEST PUSH2 0x48 PUSH1 0x4 DUP1 CALLDATASIZE SUB DUP2 ADD SWAP1 PUSH2 0x43 SWAP2 SWAP1 PUSH2 0x541 JUMP JUMPDEST PUSH2 0x75 JUMP JUMPDEST STOP JUMPDEST CALLVALUE DUP1 ISZERO PUSH2 0x56 JUMPI PUSH1 0x0 DUP1 REVERT JUMPDEST POP PUSH2 0x5F PUSH2 0x204 JUMP JUMPDEST PUSH1 0x40 MLOAD PUSH2 0x6C SWAP2 SWAP1 PUSH2 0x7BE JUMP JUMPDEST PUSH1 0x40 MLOAD DUP1 SWAP2 SUB SWAP1 RETURN JUMPDEST PUSH1 0x0 CALLVALUE GT PUSH2 0xB8 JUMPI PUSH1 0x40 MLOAD PUSH32 0x8C379A000000000000000000000000000000000000000000000000000000000 DUP2 MSTORE PUSH1 0x4 ADD PUSH2 0xAF SWAP1 PUSH2 0x83D JUMP JUMPDEST PUSH1 0x40 MLOAD DUP1 SWAP2 SUB SWAP1 REVERT JUMPDEST PUSH1 0x0 DUP1 SLOAD SWAP1 PUSH2 0x100 EXP SWAP1 DIV PUSH20 0xFFFFFFFFFFFFFFFFFFFFFFFFFFFFFFFFFFFFFFFF AND PUSH20 0xFFFFFFFFFFFFFFFFFFFFFFFFFFFFFFFFFFFFFFFF AND PUSH2 0x8FC CALLVALUE SWAP1 DUP2 ISZERO MUL SWAP1 PUSH1 0x40 MLOAD PUSH1 0x0 PUSH1 0x40 MLOAD DUP1 DUP4 SUB DUP2 DUP6 DUP9 DUP9 CALL SWAP4 POP POP POP POP ISZERO DUP1 ISZERO PUSH2 0x11E JUMPI RETURNDATASIZE PUSH1 0x0 DUP1 RETURNDATACOPY RETURNDATASIZE PUSH1 0x0 REVERT JUMPDEST POP PUSH1 0x1 PUSH1 0x40 MLOAD DUP1 PUSH1 0x80 ADD PUSH1 0x40 MSTORE DUP1 DUP5 DUP2 MSTORE PUSH1 0x20 ADD DUP4 DUP2 MSTORE PUSH1 0x20 ADD TIMESTAMP DUP2 MSTORE PUSH1 0x20 ADD CALLER PUSH20 0xFFFFFFFFFFFFFFFFFFFFFFFFFFFFFFFFFFFFFFFF AND DUP2 MSTORE POP SWAP1 DUP1 PUSH1 0x1 DUP2 SLOAD ADD DUP1 DUP3 SSTORE DUP1 SWAP2 POP POP PUSH1 0x1 SWAP1 SUB SWAP1 PUSH1 0x0 MSTORE PUSH1 0x20 PUSH1 0x0 KECCAK256 SWAP1 PUSH1 0x4 MUL ADD PUSH1 0x0 SWAP1 SWAP2 SWAP1 SWAP2 SWAP1 SWAP2 POP PUSH1 0x0 DUP3 ADD MLOAD DUP2 PUSH1 0x0 ADD SWAP1 DUP2 PUSH2 0x196 SWAP2 SWAP1 PUSH2 0xA69 JUMP JUMPDEST POP PUSH1 0x20 DUP3 ADD MLOAD DUP2 PUSH1 0x1 ADD SWAP1 DUP2 PUSH2 0x1AC SWAP2 SWAP1 PUSH2 0xA69 JUMP JUMPDEST POP PUSH1 0x40 DUP3 ADD MLOAD DUP2 PUSH1 0x2 ADD SSTORE PUSH1 0x60 DUP3 ADD MLOAD DUP2 PUSH1 0x3 ADD PUSH1 0x0 PUSH2 0x100 EXP DUP2 SLOAD DUP2 PUSH20 0xFFFFFFFFFFFFFFFFFFFFFFFFFFFFFFFFFFFFFFFF MUL NOT AND SWAP1 DUP4 PUSH20 0xFFFFFFFFFFFFFFFFFFFFFFFFFFFFFFFFFFFFFFFF AND MUL OR SWAP1 SSTORE POP POP POP POP POP JUMP JUMPDEST PUSH1 0x60 PUSH1 0x1 DUP1 SLOAD DUP1 PUSH1 0x20 MUL PUSH1 0x20 ADD PUSH1 0x40 MLOAD SWAP1 DUP2 ADD PUSH1 0x40 MSTORE DUP1 SWAP3 SWAP2 SWAP1 DUP2 DUP2 MSTORE PUSH1 0x20 ADD PUSH1 0x0 SWAP1 JUMPDEST DUP3 DUP3 LT ISZERO PUSH2 0x3DE JUMPI DUP4 DUP3 SWAP1 PUSH1 0x0 MSTORE PUSH1 0x20 PUSH1 0x0 KECCAK256 SWAP1 PUSH1 0x4 MUL ADD PUSH1 0x40 MLOAD DUP1 PUSH1 0x80 ADD PUSH1 0x40 MSTORE SWAP1 DUP2 PUSH1 0x0 DUP3 ADD DUP1 SLOAD PUSH2 0x25B SWAP1 PUSH2 0x88C JUMP JUMPDEST DUP1 PUSH1 0x1F ADD PUSH1 0x20 DUP1 SWAP2 DIV MUL PUSH1 0x20 ADD PUSH1 0x40 MLOAD SWAP1 DUP2 ADD PUSH1 0x40 MSTORE DUP1 SWAP3 SWAP2 SWAP1 DUP2 DUP2 MSTORE PUSH1 0x20 ADD DUP3 DUP1 SLOAD PUSH2 0x287 SWAP1 PUSH2 0x88C JUMP JUMPDEST DUP1 ISZERO PUSH2 0x2D4 JUMPI DUP1 PUSH1 0x1F LT PUSH2 0x2A9 JUMPI PUSH2 0x100 DUP1 DUP4 SLOAD DIV MUL DUP4 MSTORE SWAP2 PUSH1 0x20 ADD SWAP2 PUSH2 0x2D4 JUMP JUMPDEST DUP3 ADD SWAP2 SWAP1 PUSH1 0x0 MSTORE PUSH1 0x20 PUSH1 0x0 KECCAK256 SWAP1 JUMPDEST DUP2 SLOAD DUP2 MSTORE SWAP1 PUSH1 0x1 ADD SWAP1 PUSH1 0x20 ADD DUP1 DUP4 GT PUSH2 0x2B7 JUMPI DUP3 SWAP1 SUB PUSH1 0x1F AND DUP3 ADD SWAP2 JUMPDEST POP POP POP POP POP DUP2 MSTORE PUSH1 0x20 ADD PUSH1 0x1 DUP3 ADD DUP1 SLOAD PUSH2 0x2ED SWAP1 PUSH2 0x88C JUMP JUMPDEST DUP1 PUSH1 0x1F ADD PUSH1 0x20 DUP1 SWAP2 DIV MUL PUSH1 0x20 ADD PUSH1 0x40 MLOAD SWAP1 DUP2 ADD PUSH1 0x40 MSTORE DUP1 SWAP3 SWAP2 SWAP1 DUP2 DUP2 MSTORE PUSH1 0x20 ADD DUP3 DUP1 SLOAD PUSH2 0x319 SWAP1 PUSH2 0x88C JUMP JUMPDEST DUP1 ISZERO PUSH2 0x366 JUMPI DUP1 PUSH1 0x1F LT PUSH2 0x33B JUMPI PUSH2 0x100 DUP1 DUP4 SLOAD DIV MUL DUP4 MSTORE SWAP2 PUSH1 0x20 ADD SWAP2 PUSH2 0x366 JUMP JUMPDEST DUP3 ADD SWAP2 SWAP1 PUSH1 0x0 MSTORE PUSH1 0x20 PUSH1 0x0 KECCAK256 SWAP1 JUMPDEST DUP2 SLOAD DUP2 MSTORE SWAP1 PUSH1 0x1 ADD SWAP1 PUSH1 0x20 ADD DUP1 DUP4 GT PUSH2 0x349 JUMPI DUP3 SWAP1 SUB PUSH1 0x1F AND DUP3 ADD SWAP2 JUMPDEST POP POP POP POP POP DUP2 MSTORE PUSH1 0x20 ADD PUSH1 0x2 DUP3 ADD SLOAD DUP2 MSTORE PUSH1 0x20 ADD PUSH1 0x3 DUP3 ADD PUSH1 0x0 SWAP1 SLOAD SWAP1 PUSH2 0x100 EXP SWAP1 DIV PUSH20 0xFFFFFFFFFFFFFFFFFFFFFFFFFFFFFFFFFFFFFFFF AND PUSH20 0xFFFFFFFFFFFFFFFFFFFFFFFFFFFFFFFFFFFFFFFF AND PUSH20 0xFFFFFFFFFFFFFFFFFFFFFFFFFFFFFFFFFFFFFFFF AND DUP2 MSTORE POP POP DUP2 MSTORE PUSH1 0x20 ADD SWAP1 PUSH1 0x1 ADD SWAP1 PUSH2 0x228 JUMP JUMPDEST POP POP POP POP SWAP1 POP SWAP1 JUMP JUMPDEST PUSH1 0x0 PUSH1 0x40 MLOAD SWAP1 POP SWAP1 JUMP JUMPDEST PUSH1 0x0 DUP1 REVERT JUMPDEST PUSH1 0x0 DUP1 REVERT JUMPDEST PUSH1 0x0 DUP1 REVERT JUMPDEST PUSH1 0x0 DUP1 REVERT JUMPDEST PUSH1 0x0 PUSH1 0x1F NOT PUSH1 0x1F DUP4 ADD AND SWAP1 POP SWAP2 SWAP1 POP JUMP JUMPDEST PUSH32 0x4E487B7100000000000000000000000000000000000000000000000000000000 PUSH1 0x0 MSTORE PUSH1 0x41 PUSH1 0x4 MSTORE PUSH1 0x24 PUSH1 0x0 REVERT JUMPDEST PUSH2 0x44E DUP3 PUSH2 0x405 JUMP JUMPDEST DUP2 ADD DUP2 DUP2 LT PUSH8 0xFFFFFFFFFFFFFFFF DUP3 GT OR ISZERO PUSH2 0x46D JUMPI PUSH2 0x46C PUSH2 0x416 JUMP JUMPDEST JUMPDEST DUP1 PUSH1 0x40 MSTORE POP POP POP JUMP JUMPDEST PUSH1 0x0 PUSH2 0x480 PUSH2 0x3E7 JUMP JUMPDEST SWAP1 POP PUSH2 0x48C DUP3 DUP3 PUSH2 0x445 JUMP JUMPDEST SWAP2 SWAP1 POP JUMP JUMPDEST PUSH1 0x0 PUSH8 0xFFFFFFFFFFFFFFFF DUP3 GT ISZERO PUSH2 0x4AC JUMPI PUSH2 0x4AB PUSH2 0x416 JUMP JUMPDEST JUMPDEST PUSH2 0x4B5 DUP3 PUSH2 0x405 JUMP JUMPDEST SWAP1 POP PUSH1 0x20 DUP2 ADD SWAP1 POP SWAP2 SWAP1 POP JUMP JUMPDEST DUP3 DUP2 DUP4 CALLDATACOPY PUSH1 0x0 DUP4 DUP4 ADD MSTORE POP POP POP JUMP JUMPDEST PUSH1 0x0 PUSH2 0x4E4 PUSH2 0x4DF DUP5 PUSH2 0x491 JUMP JUMPDEST PUSH2 0x476 JUMP JUMPDEST SWAP1 POP DUP3 DUP2 MSTORE PUSH1 0x20 DUP2 ADD DUP5 DUP5 DUP5 ADD GT ISZERO PUSH2 0x500 JUMPI PUSH2 0x4FF PUSH2 0x400 JUMP JUMPDEST JUMPDEST PUSH2 0x50B DUP5 DUP3 DUP6 PUSH2 0x4C2 JUMP JUMPDEST POP SWAP4 SWAP3 POP POP POP JUMP JUMPDEST PUSH1 0x0 DUP3 PUSH1 0x1F DUP4 ADD SLT PUSH2 0x528 JUMPI PUSH2 0x527 PUSH2 0x3FB JUMP JUMPDEST JUMPDEST DUP2 CALLDATALOAD PUSH2 0x538 DUP5 DUP3 PUSH1 0x20 DUP7 ADD PUSH2 0x4D1 JUMP JUMPDEST SWAP2 POP POP SWAP3 SWAP2 POP POP JUMP JUMPDEST PUSH1 0x0 DUP1 PUSH1 0x40 DUP4 DUP6 SUB SLT ISZERO PUSH2 0x558 JUMPI PUSH2 0x557 PUSH2 0x3F1 JUMP JUMPDEST JUMPDEST PUSH1 0x0 DUP4 ADD CALLDATALOAD PUSH8 0xFFFFFFFFFFFFFFFF DUP2 GT ISZERO PUSH2 0x576 JUMPI PUSH2 0x575 PUSH2 0x3F6 JUMP JUMPDEST JUMPDEST PUSH2 0x582 DUP6 DUP3 DUP7 ADD PUSH2 0x513 JUMP JUMPDEST SWAP3 POP POP PUSH1 0x20 DUP4 ADD CALLDATALOAD PUSH8 0xFFFFFFFFFFFFFFFF DUP2 GT ISZERO PUSH2 0x5A3 JUMPI PUSH2 0x5A2 PUSH2 0x3F6 JUMP JUMPDEST JUMPDEST PUSH2 0x5AF DUP6 DUP3 DUP7 ADD PUSH2 0x513 JUMP JUMPDEST SWAP2 POP POP SWAP3 POP SWAP3 SWAP1 POP JUMP JUMPDEST PUSH1 0x0 DUP2 MLOAD SWAP1 POP SWAP2 SWAP1 POP JUMP JUMPDEST PUSH1 0x0 DUP3 DUP3 MSTORE PUSH1 0x20 DUP3 ADD SWAP1 POP SWAP3 SWAP2 POP POP JUMP JUMPDEST PUSH1 0x0 DUP2 SWAP1 POP PUSH1 0x20 DUP3 ADD SWAP1 POP SWAP2 SWAP1 POP JUMP JUMPDEST PUSH1 0x0 DUP2 MLOAD SWAP1 POP SWAP2 SWAP1 POP JUMP JUMPDEST PUSH1 0x0 DUP3 DUP3 MSTORE PUSH1 0x20 DUP3 ADD SWAP1 POP SWAP3 SWAP2 POP POP JUMP JUMPDEST PUSH1 0x0 JUMPDEST DUP4 DUP2 LT ISZERO PUSH2 0x61F JUMPI DUP1 DUP3 ADD MLOAD DUP2 DUP5 ADD MSTORE PUSH1 0x20 DUP2 ADD SWAP1 POP PUSH2 0x604 JUMP JUMPDEST PUSH1 0x0 DUP5 DUP5 ADD MSTORE POP POP POP POP JUMP JUMPDEST PUSH1 0x0 PUSH2 0x636 DUP3 PUSH2 0x5E5 JUMP JUMPDEST PUSH2 0x640 DUP2 DUP6 PUSH2 0x5F0 JUMP JUMPDEST SWAP4 POP PUSH2 0x650 DUP2 DUP6 PUSH1 0x20 DUP7 ADD PUSH2 0x601 JUMP JUMPDEST PUSH2 0x659 DUP2 PUSH2 0x405 JUMP JUMPDEST DUP5 ADD SWAP2 POP POP SWAP3 SWAP2 POP POP JUMP JUMPDEST PUSH1 0x0 DUP2 SWAP1 POP SWAP2 SWAP1 POP JUMP JUMPDEST PUSH2 0x677 DUP2 PUSH2 0x664 JUMP JUMPDEST DUP3 MSTORE POP POP JUMP JUMPDEST PUSH1 0x0 PUSH20 0xFFFFFFFFFFFFFFFFFFFFFFFFFFFFFFFFFFFFFFFF DUP3 AND SWAP1 POP SWAP2 SWAP1 POP JUMP JUMPDEST PUSH1 0x0 PUSH2 0x6A8 DUP3 PUSH2 0x67D JUMP JUMPDEST SWAP1 POP SWAP2 SWAP1 POP JUMP JUMPDEST PUSH2 0x6B8 DUP2 PUSH2 0x69D JUMP JUMPDEST DUP3 MSTORE POP POP JUMP JUMPDEST PUSH1 0x0 PUSH1 0x80 DUP4 ADD PUSH1 0x0 DUP4 ADD MLOAD DUP5 DUP3 SUB PUSH1 0x0 DUP7 ADD MSTORE PUSH2 0x6DB DUP3 DUP3 PUSH2 0x62B JUMP JUMPDEST SWAP2 POP POP PUSH1 0x20 DUP4 ADD MLOAD DUP5 DUP3 SUB PUSH1 0x20 DUP7 ADD MSTORE PUSH2 0x6F5 DUP3 DUP3 PUSH2 0x62B JUMP JUMPDEST SWAP2 POP POP PUSH1 0x40 DUP4 ADD MLOAD PUSH2 0x70A PUSH1 0x40 DUP7 ADD DUP3 PUSH2 0x66E JUMP JUMPDEST POP PUSH1 0x60 DUP4 ADD MLOAD PUSH2 0x71D PUSH1 0x60 DUP7 ADD DUP3 PUSH2 0x6AF JUMP JUMPDEST POP DUP1 SWAP2 POP POP SWAP3 SWAP2 POP POP JUMP JUMPDEST PUSH1 0x0 PUSH2 0x734 DUP4 DUP4 PUSH2 0x6BE JUMP JUMPDEST SWAP1 POP SWAP3 SWAP2 POP POP JUMP JUMPDEST PUSH1 0x0 PUSH1 0x20 DUP3 ADD SWAP1 POP SWAP2 SWAP1 POP JUMP JUMPDEST PUSH1 0x0 PUSH2 0x754 DUP3 PUSH2 0x5B9 JUMP JUMPDEST PUSH2 0x75E DUP2 DUP6 PUSH2 0x5C4 JUMP JUMPDEST SWAP4 POP DUP4 PUSH1 0x20 DUP3 MUL DUP6 ADD PUSH2 0x770 DUP6 PUSH2 0x5D5 JUMP JUMPDEST DUP1 PUSH1 0x0 JUMPDEST DUP6 DUP2 LT ISZERO PUSH2 0x7AC JUMPI DUP5 DUP5 SUB DUP10 MSTORE DUP2 MLOAD PUSH2 0x78D DUP6 DUP3 PUSH2 0x728 JUMP JUMPDEST SWAP5 POP PUSH2 0x798 DUP4 PUSH2 0x73C JUMP JUMPDEST SWAP3 POP PUSH1 0x20 DUP11 ADD SWAP10 POP POP PUSH1 0x1 DUP2 ADD SWAP1 POP PUSH2 0x774 JUMP JUMPDEST POP DUP3 SWAP8 POP DUP8 SWAP6 POP POP POP POP POP POP SWAP3 SWAP2 POP POP JUMP JUMPDEST PUSH1 0x0 PUSH1 0x20 DUP3 ADD SWAP1 POP DUP2 DUP2 SUB PUSH1 0x0 DUP4 ADD MSTORE PUSH2 0x7D8 DUP2 DUP5 PUSH2 0x749 JUMP JUMPDEST SWAP1 POP SWAP3 SWAP2 POP POP JUMP JUMPDEST PUSH1 0x0 DUP3 DUP3 MSTORE PUSH1 0x20 DUP3 ADD SWAP1 POP SWAP3 SWAP2 POP POP JUMP JUMPDEST PUSH32 0x5061792067726561746572207468616E20302065746865722E00000000000000 PUSH1 0x0 DUP3 ADD MSTORE POP JUMP JUMPDEST PUSH1 0x0 PUSH2 0x827 PUSH1 0x19 DUP4 PUSH2 0x7E0 JUMP JUMPDEST SWAP2 POP PUSH2 0x832 DUP3 PUSH2 0x7F1 JUMP JUMPDEST PUSH1 0x20 DUP3 ADD SWAP1 POP SWAP2 SWAP1 POP JUMP JUMPDEST PUSH1 0x0 PUSH1 0x20 DUP3 ADD SWAP1 POP DUP2 DUP2 SUB PUSH1 0x0 DUP4 ADD MSTORE PUSH2 0x856 DUP2 PUSH2 0x81A JUMP JUMPDEST SWAP1 POP SWAP2 SWAP1 POP JUMP JUMPDEST PUSH32 0x4E487B7100000000000000000000000000000000000000000000000000000000 PUSH1 0x0 MSTORE PUSH1 0x22 PUSH1 0x4 MSTORE PUSH1 0x24 PUSH1 0x0 REVERT JUMPDEST PUSH1 0x0 PUSH1 0x2 DUP3 DIV SWAP1 POP PUSH1 0x1 DUP3 AND DUP1 PUSH2 0x8A4 JUMPI PUSH1 0x7F DUP3 AND SWAP2 POP JUMPDEST PUSH1 0x20 DUP3 LT DUP2 SUB PUSH2 0x8B7 JUMPI PUSH2 0x8B6 PUSH2 0x85D JUMP JUMPDEST JUMPDEST POP SWAP2 SWAP1 POP JUMP JUMPDEST PUSH1 0x0 DUP2 SWAP1 POP DUP2 PUSH1 0x0 MSTORE PUSH1 0x20 PUSH1 0x0 KECCAK256 SWAP1 POP SWAP2 SWAP1 POP JUMP JUMPDEST PUSH1 0x0 PUSH1 0x20 PUSH1 0x1F DUP4 ADD DIV SWAP1 POP SWAP2 SWAP1 POP JUMP JUMPDEST PUSH1 0x0 DUP3 DUP3 SHL SWAP1 POP SWAP3 SWAP2 POP POP JUMP JUMPDEST PUSH1 0x0 PUSH1 0x8 DUP4 MUL PUSH2 0x91F PUSH32 0xFFFFFFFFFFFFFFFFFFFFFFFFFFFFFFFFFFFFFFFFFFFFFFFFFFFFFFFFFFFFFFFF DUP3 PUSH2 0x8E2 JUMP JUMPDEST PUSH2 0x929 DUP7 DUP4 PUSH2 0x8E2 JUMP JUMPDEST SWAP6 POP DUP1 NOT DUP5 AND SWAP4 POP DUP1 DUP7 AND DUP5 OR SWAP3 POP POP POP SWAP4 SWAP3 POP POP POP JUMP JUMPDEST PUSH1 0x0 DUP2 SWAP1 POP SWAP2 SWAP1 POP JUMP JUMPDEST PUSH1 0x0 PUSH2 0x966 PUSH2 0x961 PUSH2 0x95C DUP5 PUSH2 0x664 JUMP JUMPDEST PUSH2 0x941 JUMP JUMPDEST PUSH2 0x664 JUMP JUMPDEST SWAP1 POP SWAP2 SWAP1 POP JUMP JUMPDEST PUSH1 0x0 DUP2 SWAP1 POP SWAP2 SWAP1 POP JUMP JUMPDEST PUSH2 0x980 DUP4 PUSH2 0x94B JUMP JUMPDEST PUSH2 0x994 PUSH2 0x98C DUP3 PUSH2 0x96D JUMP JUMPDEST DUP5 DUP5 SLOAD PUSH2 0x8EF JUMP JUMPDEST DUP3 SSTORE POP POP POP POP JUMP JUMPDEST PUSH1 0x0 SWAP1 JUMP JUMPDEST PUSH2 0x9A9 PUSH2 0x99C JUMP JUMPDEST PUSH2 0x9B4 DUP2 DUP5 DUP5 PUSH2 0x977 JUMP JUMPDEST POP POP POP JUMP JUMPDEST JUMPDEST DUP2 DUP2 LT ISZERO PUSH2 0x9D8 JUMPI PUSH2 0x9CD PUSH1 0x0 DUP3 PUSH2 0x9A1 JUMP JUMPDEST PUSH1 0x1 DUP2 ADD SWAP1 POP PUSH2 0x9BA JUMP JUMPDEST POP POP JUMP JUMPDEST PUSH1 0x1F DUP3 GT ISZERO PUSH2 0xA1D JUMPI PUSH2 0x9EE DUP2 PUSH2 0x8BD JUMP JUMPDEST PUSH2 0x9F7 DUP5 PUSH2 0x8D2 JUMP JUMPDEST DUP2 ADD PUSH1 0x20 DUP6 LT ISZERO PUSH2 0xA06 JUMPI DUP2 SWAP1 POP JUMPDEST PUSH2 0xA1A PUSH2 0xA12 DUP6 PUSH2 0x8D2 JUMP JUMPDEST DUP4 ADD DUP3 PUSH2 0x9B9 JUMP JUMPDEST POP POP JUMPDEST POP POP POP JUMP JUMPDEST PUSH1 0x0 DUP3 DUP3 SHR SWAP1 POP SWAP3 SWAP2 POP POP JUMP JUMPDEST PUSH1 0x0 PUSH2 0xA40 PUSH1 0x0 NOT DUP5 PUSH1 0x8 MUL PUSH2 0xA22 JUMP JUMPDEST NOT DUP1 DUP4 AND SWAP2 POP POP SWAP3 SWAP2 POP POP JUMP JUMPDEST PUSH1 0x0 PUSH2 0xA59 DUP4 DUP4 PUSH2 0xA2F JUMP JUMPDEST SWAP2 POP DUP3 PUSH1 0x2 MUL DUP3 OR SWAP1 POP SWAP3 SWAP2 POP POP JUMP JUMPDEST PUSH2 0xA72 DUP3 PUSH2 0x5E5 JUMP JUMPDEST PUSH8 0xFFFFFFFFFFFFFFFF DUP2 GT ISZERO PUSH2 0xA8B JUMPI PUSH2 0xA8A PUSH2 0x416 JUMP JUMPDEST JUMPDEST PUSH2 0xA95 DUP3 SLOAD PUSH2 0x88C JUMP JUMPDEST PUSH2 0xAA0 DUP3 DUP3 DUP6 PUSH2 0x9DC JUMP JUMPDEST PUSH1 0x0 PUSH1 0x20 SWAP1 POP PUSH1 0x1F DUP4 GT PUSH1 0x1 DUP2 EQ PUSH2 0xAD3 JUMPI PUSH1 0x0 DUP5 ISZERO PUSH2 0xAC1 JUMPI DUP3 DUP8 ADD MLOAD SWAP1 POP JUMPDEST PUSH2 0xACB DUP6 DUP3 PUSH2 0xA4D JUMP JUMPDEST DUP7 SSTORE POP PUSH2 0xB33 JUMP JUMPDEST PUSH1 0x1F NOT DUP5 AND PUSH2 0xAE1 DUP7 PUSH2 0x8BD JUMP JUMPDEST PUSH1 0x0 JUMPDEST DUP3 DUP2 LT ISZERO PUSH2 0xB09 JUMPI DUP5 DUP10 ADD MLOAD DUP3 SSTORE PUSH1 0x1 DUP3 ADD SWAP2 POP PUSH1 0x20 DUP6 ADD SWAP5 POP PUSH1 0x20 DUP2 ADD SWAP1 POP PUSH2 0xAE4 JUMP JUMPDEST DUP7 DUP4 LT ISZERO PUSH2 0xB26 JUMPI DUP5 DUP10 ADD MLOAD PUSH2 0xB22 PUSH1 0x1F DUP10 AND DUP3 PUSH2 0xA2F JUMP JUMPDEST DUP4 SSTORE POP JUMPDEST PUSH1 0x1 PUSH1 0x2 DUP9 MUL ADD DUP9 SSTORE POP POP POP JUMPDEST POP POP POP POP POP POP JUMP INVALID LOG2 PUSH5 0x6970667358 0x22 SLT KECCAK256 SUB LOG1 NOT 0xA5 0xF8 0xEC JUMP INVALID 0x5C OR 0xDD NUMBER 0xC8 0x4A SWAP12 0xA6 MLOAD EQ SSTORE 0xEB DUP13 ADDMOD 0xBF 0xE PUSH29 0xBA892161D38ACE64736F6C634300081100330000000000000000000000 "},"methodIdentifiers":{"getInfo()":"5a9b0b89","sendTip(string,string)":"54cafb04"}}}}}